:100000000C9453000C9488020C9461020C947B00B5
:100010000C947B000C947B000C947B000C947B0074
:100020000C947B000C947B000C947B000C947B0064
:100030000C947B000C947B000C947B000C947B0054
:100040000C9417020C947B000C94D5020C94AF0214
:100050000C947B000C947B000C947B000C947B0034
:100060000C947B000C947B0000000000250028000D
:100070002B0000000000240027002A0004040404D0
:100080000404040402020202020203030303030342
:10009000010204081020408001020408102001021F
:1000A00004081020070311241FBECFEFD8E0DEBFE5
:1000B000CDBF11E0A0E0B1E0E8E0F7E102C00590BB
:1000C0000D92AA33B107D9F721E0AAE3B1E001C04C
:1000D0001D92A43FB207E1F710E0C3E5D0E004C0F1
:1000E0002197FE010E947F06C235D107C9F70E9401
:1000F0003E030C94820B0C940000CF93DF9390E0AE
:10010000FC01E057FF4F249184589F4FFC018491DC
:100110008823D1F090E0880F991FFC01EE58FF4F23
:10012000A591B491FC01E859FF4FC591D49162307B
:1001300071F49FB7F8943C91822F809583238C9320
:10014000E8812E2B28839FBFDF91CF9108958FB731
:10015000F894EC912E2B2C938FBFF6CF3FB7F894E9
:100160008091470190914801A0914901B0914A01C5
:1001700026B5A89B05C02F3F19F00196A11DB11D02
:100180003FBFBA2FA92F982F8827BC01CD01620F3E
:10019000711D811D911D42E0660F771F881F991FF9
:1001A0004A95D1F708952FB7F89480914301909123
:1001B0004401A0914501B09146012FBF40913E01FD
:1001C00050913F01609140017091410148175907DA
:1001D0006A077B07C1F040913E0150913F01609159
:1001E00040017091410140933A0150933B0160936B
:1001F0003C0170933D0180933E0190933F01A09399
:100200004001B093410108950895AF92BF92CF92FB
:10021000DF92EF92FF920F931F93CF93DF936C01C6
:100220007B018B01040F151FEB015E01AE18BF08A7
:10023000C017D10759F06991D601ED91FC91019059
:10024000F081E02DC6010995892B79F7C501DF9171
:10025000CF911F910F91FF90EF90DF90CF90BF90C3
:10026000AF900895FC01538D448D252F30E0842FED
:1002700090E0821B930B541710F0CF9608950197CE
:100280000895FC01918D828D981761F0A28DAE0FBB
:10029000BF2FB11D5D968C91928D9F5F9F73928F42
:1002A00090E008958FEF9FEF0895FC01918D828D6E
:1002B000981731F0828DE80FF11D858D90E008953B
:1002C0008FEF9FEF0895FC01918D228D892F90E093
:1002D000805C9F4F821B91098F73992708958BE44F
:1002E00091E00E94630121E0892B09F420E0822F34
:1002F000089580E090E0892B29F00E946F01811120
:100300000C9400000895FC01A48DA80FB92FB11D15
:10031000A35ABF4F2C91848D90E001968F7399273B
:10032000848FA689B7892C93A089B1898C91837019
:1003300080648C93938D848D981306C00288F38912
:10034000E02D80818F7D80830895EF92FF920F933F
:100350001F93CF93DF93EC0181E0888F9B8D8C8D71
:1003600098131AC0E889F989808185FF15C09FB765
:10037000F894EE89FF896083E889F9898081837028
:10038000806480839FBF81E090E0DF91CF911F91D7
:100390000F91FF90EF900895F62E0B8D10E00F5FF8
:1003A0001F4F0F731127E02E8C8D8E110CC00FB6CE
:1003B00007FCFACFE889F989808185FFF5CFCE0166
:1003C0000E948301F1CFEB8DEC0FFD2FF11DE35A5D
:1003D000FF4FF0829FB7F8940B8FEA89FB898081E9
:1003E0008062CFCFCF93DF93EC01888D8823B9F063
:1003F000AA89BB89E889F9898C9185FD03C0808130
:1004000086FD0DC00FB607FCF7CF8C9185FFF2CFAC
:10041000808185FFEDCFCE010E948301E9CFDF917E
:10042000CF910895682F8BE491E00C94A5011F9261
:100430000F920FB60F9211242F933F938F939F9398
:10044000AF93BF938091430190914401A0914501E6
:10045000B09146013091420123E0230F2D3758F52A
:100460000196A11DB11D20934201809343019093F9
:100470004401A0934501B0934601809147019091BA
:100480004801A0914901B0914A010196A11DB11DF9
:100490008093470190934801A0934901B0934A018A
:1004A000BF91AF919F918F913F912F910F900FBE70
:1004B0000F901F90189526E8230F0296A11DB11DDD
:1004C000D2CF1F920F920FB60F9211242F933F930A
:1004D0004F935F936F937F938F939F93AF93BF934C
:1004E000EF93FF93E0910201F09103010995FF91D1
:1004F000EF91BF91AF919F918F917F916F915F919C
:100500004F913F912F910F900FBE0F901F90189514
:100510001F920F920FB60F9211242F933F934F9378
:100520005F936F937F938F939F93AF93BF93EF935B
:10053000FF93E0910001F09101010995FF91EF9186
:10054000BF91AF919F918F917F916F915F914F91EB
:100550003F912F910F900FBE0F901F9018951F92F3
:100560000F920FB60F9211242F933F934F935F93E7
:100570006F937F938F939F93AF93BF93EF93FF936B
:100580008BE491E00E948301FF91EF91BF91AF91C5
:100590009F918F917F916F915F914F913F912F919B
:1005A0000F900FBE0F901F9018951F920F920FB6CD
:1005B0000F9211242F938F939F93EF93FF93E091CA
:1005C0005B01F0915C018081E0916101F091620139
:1005D00082FD1BC09081809164018F5F8F73209199
:1005E0006501821741F0E0916401F0E0E55BFE4FA8
:1005F000958F80936401FF91EF919F918F912F913F
:100600000F900FBE0F901F9018958081F4CFEBE4F0
:10061000F1E01382128288EE93E0A0E0B0E08483E0
:100620009583A683B7838EE091E09183808385ECE8
:1006300090E09587848784EC90E09787868780ECAC
:1006400090E0918B808B81EC90E0938B828B82EC9D
:1006500090E0958B848B86EC90E0978B868B118E47
:10066000128E138E148E70E060E082E192E00E94A0
:10067000CA049093E9018093E8010895789484B5C1
:10068000826084BD84B5816084BD85B5826085BD8E
:1006900085B5816085BD80916E00816080936E001C
:1006A000109281008091810082608093810080910E
:1006B00081008160809381008091800081608093BF
:1006C00080008091B10084608093B1008091B0007F
:1006D00081608093B00080917A00846080937A007A
:1006E00080917A00826080937A0080917A008160A4
:1006F00080937A0080917A00806880937A001092CB
:10070000C1008091E8019091E9019093ED018093FF
:10071000EC0162E082E00E947D0083ED90E0909326
:10072000010180930001809169008C7F8260809339
:100730006900E89AE0915B01F0915C0182E08083BE
:10074000E0915701F09158011082E0915901F09128
:100750005A018FEC808310926301E0915F01F09168
:10076000600186E08083E0915D01F0915E0180810F
:1007700080618083E0915D01F0915E0180818860FD
:100780008083E0915D01F0915E01808180688083CB
:10079000E0915D01F0915E0180818F7D808361E059
:1007A00089E00E947D0061E08AE00E947D0082EA8B
:1007B0008093800081E18093810080E491E09093B8
:1007C0008700809386001092890010928800109212
:1007D0008B0010928A00109289001092880030E3FA
:1007E000432E35E7532E612C712C4CE1242E41E031
:1007F000342EC6E2D1E000E010E00E94AE004B01D2
:100800005C0124E6C22ED12CE12CF12C0E94AE001A
:10081000681979098A099B09683E73408105910529
:10082000A8F321E0C21AD108E108F10888EE880E89
:1008300083E0981EA11CB11CC114D104E104F10491
:1008400029F72FB7F8948091430190914401A0912A
:100850004501B09146012FBF40913E0150913F01AB
:100860006091400170914101841B950BA60BB70B61
:10087000843F9140A105B10530F580913E019091F2
:100880003F01A0914001B0914101892B8A2B8B2B14
:10089000D1F020913E0130913F01409140015091B3
:1008A000410180913A0190913B01A0913C01B091AE
:1008B0003D01281B390B4A0B5B0BC301B2010E949F
:1008C0005D0669017A01FF92EF92DF92CF923F922B
:1008D0002F920E94B7080F900F900F900F900F90DB
:1008E0000F90CD28CE28CF2809F048C0609188000D
:1008F0007091890090E080E00E94930720E030E052
:1009000040EA53E40E94F2062AE037ED43EA5CE352
:100910000E9486064B015C016B017C01BF928F93A4
:100920009F926F93DF93CF930E94B7080F900F9021
:100930000F900F900F900F9020E030E040E85FE3C1
:10094000682D792D8A2D9B2D0E942108181634F4CC
:10095000C12CD12C80E8E82E9FE3F92E20E030E076
:1009600040EA53E46C2D7D2D8E2D9F2D0E9426088C
:100970000E94640770938900609388000115110537
:1009800009F43BCF0E946F01882309F436CF0E94FF
:10099000000033CF0F931F93CF93DF93009759F449
:1009A0006115710541F4F0E0E0E0CF01DF91CF91F6
:1009B0001F910F9108958B01EC016EE070E081E0D2
:1009C00090E00E941505FC01892B69F380E8838380
:1009D0000115110571F01387028781E883838091E7
:1009E000EA019091EB01892B21F4F093EB01E09364
:1009F000EA012097D1F2D187C08783818260838307
:100A00008091EC019091ED01892B79F6F093ED0145
:100A1000E093EC018091EE019091EF01892B29F692
:100A2000F093EF01E093EE01C0CF0F931F93CF93AC
:100A3000DF93869F8001879F100D969F100D1124D4
:100A4000C8010E943105EC01009729F0A80170E06F
:100A500060E00E945606CE01DF91CF911F910F9169
:100A600008950F931F93CF93DF938230910510F475
:100A700082E090E0E091F201F091F30130E020E0BB
:100A8000B0E0A0E0309799F42115310509F44AC08F
:100A9000281B390B24303105D8F58A819B816115DB
:100AA000710589F1FB0193838283FE0111C04081AE
:100AB00051810281138148175907E0F048175907FF
:100AC00099F4109761F012960C93129713961C9359
:100AD0003296CF01DF91CF911F910F91089500932E
:100AE000F2011093F301F4CF2115310551F04217B3
:100AF000530738F0A901DB019A01BD01DF01F801BC
:100B0000C1CFEF01F9CF9093F3018093F201CDCFE4
:100B1000FE01E20FF31F8193919322503109398333
:100B20002883D7CF2091F0013091F101232B41F49C
:100B300020910601309107013093F1012093F001DB
:100B400020910401309105012115310541F42DB7A3
:100B50003EB74091080150910901241B350BE091EB
:100B6000F001F091F101E217F307A0F42E1B3F0B07
:100B70002817390778F0AC014E5F5F4F241735070F
:100B800048F04E0F5F1F5093F1014093F0018193A5
:100B900091939FCFF0E0E0E09CCFCF93DF9300975D
:100BA000E9F0FC01329713821282A091F201B09118
:100BB000F301ED0130E020E01097A1F420813181B4
:100BC000820F931F2091F0013091F101281739070E
:100BD00009F061C0F093F101E093F001DF91CF9152
:100BE0000895EA01CE17DF07E8F54A815B819E018F
:100BF00041155105B1F7E901FB83EA834991599108
:100C0000C40FD51FEC17FD0761F480819181029616
:100C1000840F951FE90199838883828193819B8347
:100C20008A83F0E0E0E012968D919C9113970097F3
:100C3000B9F52D913C911197CD010296820F931F2A
:100C40002091F0013091F1012817390739F63097DA
:100C500051F51092F3011092F201B093F101A093BB
:100C6000F001BCCFD383C28340815181840F951F93
:100C7000C817D90761F44E5F5F4F88819981480F8B
:100C8000591F518340838A819B81938382832115DD
:100C9000310509F0B0CFF093F301E093F2019ECF5C
:100CA000FD01DC01C0CF13821282D7CFDC0101C06D
:100CB0006D9341505040E0F70895A1E21A2EAA1B0F
:100CC000BB1BFD010DC0AA1FBB1FEE1FFF1FA217FC
:100CD000B307E407F50720F0A21BB30BE40BF50BF9
:100CE000661F771F881F991F1A9469F76095709582
:100CF000809590959B01AC01BD01CF010895EE0F49
:100D0000FF1F0590F491E02D09945058BB27AA27A6
:100D10000E949D060C94E7070E94D90738F00E94B4
:100D2000E00720F039F49F3F19F426F40C94D6071D
:100D30000EF4E095E7FB0C94D007E92F0E94F8072A
:100D400058F3BA17620773078407950720F079F400
:100D5000A6F50C941A080EF4E0950B2EBA2FA02DD0
:100D60000B01B90190010C01CA01A0011124FF2758
:100D7000591B99F0593F50F4503E68F11A16F04053
:100D8000A22F232F342F4427585FF3CF4695379552
:100D90002795A795F0405395C9F77EF41F16BA0B17
:100DA000620B730B840BBAF09150A1F0FF0FBB1FC5
:100DB000661F771F881FC2F70EC0BA0F621F731F0E
:100DC000841F48F4879577956795B795F7959E3F6B
:100DD00008F0B0CF9395880F08F09927EE0F9795FC
:100DE000879508950E9406070C94E7070E94E00784
:100DF00058F00E94D90740F029F45F3F29F00C9485
:100E0000D00751110C941B080C94D6070E94F807C8
:100E100068F39923B1F3552391F3951B550BBB2729
:100E2000AA2762177307840738F09F5F5F4F220F6E
:100E3000331F441FAA1FA9F335D00E2E3AF0E0E865
:100E400032D091505040E695001CCAF72BD0FE2FAF
:100E500029D0660F771F881FBB1F26173707480743
:100E6000AB07B0E809F0BB0B802DBF01FF279358FB
:100E70005F4F3AF09E3F510578F00C94D0070C94E8
:100E80001B085F3FE4F3983ED4F38695779567950A
:100E9000B795F7959F5FC9F7880F911D9695879530
:100EA00097F90895E1E0660F771F881FBB1F62174F
:100EB00073078407BA0720F0621B730B840BBA0B0D
:100EC000EE1F88F7E09508950E94000888F09F576C
:100ED00098F0B92F9927B751B0F0E1F0660F771F5E
:100EE000881F991F1AF0BA95C9F714C0B13091F054
:100EF0000E941A08B1E008950C941A08672F782F01
:100F00008827B85F39F0B93FCCF386957795679518
:100F1000B395D9F73EF490958095709561957F4F84
:100F20008F4F9F4F0895E89409C097FB3EF490952A
:100F30008095709561957F4F8F4F9F4F9923A9F0B2
:100F4000F92F96E9BB279395F69587957795679541
:100F5000B795F111F8CFFAF4BB0F11F460FF1BC085
:100F60006F5F7F4F8F4F9F4F16C0882311F096E918
:100F700011C0772321F09EE8872F762F05C06623C6
:100F800071F096E8862F70E060E02AF09A95660F7F
:100F9000771F881FDAF7880F9695879597F9089538
:100FA00097F99F6780E870E060E008959FEF80EC1C
:100FB000089500240A9416161706180609060895BF
:100FC00000240A9412161306140605060895092E25
:100FD0000394000C11F4882352F0BB0F40F4BF2B94
:100FE00011F460FF04C06F5F7F4F8F4F9F4F0895D4
:100FF00057FD9058440F551F59F05F3F71F04795CA
:10100000880F97FB991F61F09F3F79F087950895AE
:10101000121613061406551FF2CF4695F1DF08C0CD
:10102000161617061806991FF1CF869571056105EA
:1010300008940895E894BB2766277727CB0197F992
:1010400008950E94930808F48FEF08950E943908CC
:101050000C94E7070E94D90738F00E94E00720F0BF
:10106000952311F00C94D0070C94D60711240C94FE
:101070001B080E94F80770F3959FC1F3950F50E08D
:10108000551F629FF001729FBB27F00DB11D639F3A
:10109000AA27F00DB11DAA1F649F6627B00DA11DE0
:1010A000661F829F2227B00DA11D621F739FB00D86
:1010B000A11D621F839FA00D611D221F749F3327F6
:1010C000A00D611D231F849F600D211D822F762F8F
:1010D0006A2F11249F5750409AF0F1F088234AF06C
:1010E000EE0FFF1FBB1F661F771F881F91505040D8
:1010F000A9F79E3F510580F00C94D0070C941B0873
:101100005F3FE4F3983ED4F3869577956795B7955E
:10111000F795E7959F5FC1F7FE2B880F911D969578
:10112000879597F90895990F0008550FAA0BE0E8E5
:10113000FEEF16161706E807F907C0F01216130699
:10114000E407F50798F0621B730B840B950B39F4D9
:101150000A2661F0232B242B252B21F408950A263F
:1011600009F4A140A6958FEF811D811D0895B0E07F
:10117000A0E0EDEBF8E00C945B0BAE014B5F5F4F32
:10118000FA0161917191AF018091EC019091ED01B3
:101190000E94CD08E2E00C94770BABE0B0E0E3ED09
:1011A000F8E00C944B0B7C013B018A01FC01178297
:1011B0001682838181FFC8C1CE0101965C01F701CF
:1011C0009381F30193FD859193FF81913F018823E2
:1011D00009F453C1853239F493FD859193FF8191D0
:1011E0003F01853229F4B70190E00E94BD0AE7CFA4
:1011F000912C212C312CFFE1F31538F08B3211F1B9
:1012000090F4803209F1833229F137FC3CC020EDA3
:10121000280F2A3050F536FE20C08AE0989E200D17
:101220001124922E06C08D3291F0803371F76894AC
:1012300030F8F30193FD859193FF81913F01811176
:10124000DACF21C0689431F8689432F8F2CF68940C
:1012500033F8EFCF689434F8ECCFEAE02E9E200DFF
:101260001124222E689435F8E4CF8E3229F436FC0E
:1012700004C1689436F8DDCF8C3619F4689437F8D9
:10128000D8CF8836B1F2982F9F7D95549330E0F0F7
:101290008336A1F18337C1F1833509F063C028019A
:1012A000F2E04F0E511CF801C080D180692D70E032
:1012B00036FC02C06FEF7FEFC6010E94A70A4C0107
:1012C000689437F882010AC00C5F1F4FFFE3F9836F
:1012D00088248394912C6501E89437F833FE2DC05F
:1012E000522C8114910471F5552009F468CFB7018F
:1012F00080E290E00E94BD0A5A94F6CFF801808106
:1013000089830E5F1F4FE4CF2801F2E04F0E511C7E
:10131000F801C080D180692D70E036FC02C06FEF0B
:101320007FEFC6010E94B20A4C018201D5CFB701FE
:1013300080E290E00E94BD0A2A942814190409F062
:10134000B0F7CECFF60137FC859137FE81916F0162
:10135000B70190E00E94BD0A51105A94F1E08F1A33
:101360009108BFCF843619F0893609F077C0F801AB
:1013700037FE6BC060817181828193810C5F1F4F4A
:10138000F32DFF763F2E97FF09C0909580957095BD
:1013900061957F4F8F4F9F4F689437F82AE030E078
:1013A000A5010E94ED0AC82ECA188C2C432C36FECB
:1013B0000CC0E89440F8C91440F434FE05C032FC77
:1013C00003C0F32DFE7E4F2E892C44FE95C0FE01F6
:1013D000EC0DF11D8081803309F087C0242D297E1A
:1013E000422E842D8870582E43FC95C040FE8FC03D
:1013F0009C2C821418F42C0C922C981844FE91C04A
:10140000B70180E390E00E94BD0A42FE09C088E770
:1014100090E041FE02C088E590E0B7010E94BD0A5D
:10142000C91408F48AC0CA94D12C9FEFC91AD90AEA
:10143000CA0CDB1CF60182916F01B70190E00E949B
:10144000BD0AAC14BD04B1F74FCF60817181072E86
:10145000000C880B990B0E5F1F4F92CFD32CE89492
:10146000D4F82AE030E0853739F1232D297FD22EB8
:101470008F3601F148F48835A9F0F701868197810C
:101480002B96E2E10C94670B803749F08837A9F777
:10149000D4FE02C06894D2F820E130E00DC0689418
:1014A000D4F8F6CF34FE03C0822F8660D82E20E118
:1014B00032E002C028E030E0F801D7FE0FC06081C2
:1014C0007181828193810C5F1F4FA5010E94ED0AFB
:1014D000C82ECA183D2CE89437F867CF6081718117
:1014E00090E080E00E5F1F4FF0CF42FC02C083947B
:1014F00078CF8394839475CF842D867809F471CF47
:10150000F6CFB70180E290E00E94BD0A8394821476
:10151000C0F3512C73CF522C5818821408F46ECF9C
:10152000F8CF842D867809F47BCF8BE241FE80E2F0
:1015300047FC8DE2B70190E071CFB70180E390E006
:101540000E94BD0A9A946CCF8FEF9FEF99CFFC0158
:101550000590615070400110D8F7809590958E0FDE
:101560009F1F0895FC016150704001900110D8F751
:10157000809590958E0F9F1F08950F931F93CF9383
:10158000DF93182F092FEB018B8181FD09C01FEF1D
:101590000FEF812F902FDF91CF911F910F91089521
:1015A00082FF14C02E813F818C819D8128173907CD
:1015B0003CF4E881F981CF010196998388831083F7
:1015C0008E819F8101969F838E83E3CFE885F98585
:1015D000812F0995892BA1F3DACFFA01AA272830A8
:1015E00051F1203181F1E8946F936E7F6E5F7F4FF0
:1015F0008F4F9F4FAF4FB1E03ED0B4E03CD0670F6C
:10160000781F891F9A1FA11D680F791F8A1F911DBE
:10161000A11D6A0F711D811D911DA11D20D009F40E
:1016200068943F912AE0269F11243019305D319350
:10163000DEF6CF010895462F4770405D4193B3E039
:101640000FD0C9F7F6CF462F4F70405D4A3318F0E0
:10165000495D31FD4052419302D0A9F7EACFB4E091
:10166000A6959795879577956795BA95C9F7009749
:101670006105710508959B01AC010A2E06945795EA
:10168000479537952795BA95C9F7620F731F841F41
:10169000951FA01D08952F923F924F925F926F92D7
:1016A0007F928F929F92AF92BF92CF92DF92EF92F2
:1016B000FF920F931F93CF93DF93CDB7DEB7CA1B73
:1016C000DB0B0FB6F894DEBF0FBECDBF09942A889E
:1016D000398848885F846E847D848C849B84AA8446
:1016E000B984C884DF80EE80FD800C811B81AA81D3
:1016F000B981CE0FD11D0FB6F894DEBF0FBECDBF9E
:08170000ED010895F894FFCFFC
:10170800040104010000F401800000000000A501AC
:1017180005013201F20163014101550152504D3A70
:1017280020256C750A00696E6372656173696E675E
:0A1738002050574D3A2025660A00A4
:00000001FF
